{
  "contractName": "Faucet",
  "abi": [
    {
      "inputs": [],
      "name": "numOfFunders",
      "outputs": [
        {
          "internalType": "uint256",
          "name": "",
          "type": "uint256"
        }
      ],
      "stateMutability": "view",
      "type": "function",
      "constant": true
    },
    {
      "inputs": [],
      "name": "owner",
      "outputs": [
        {
          "internalType": "address",
          "name": "",
          "type": "address"
        }
      ],
      "stateMutability": "view",
      "type": "function",
      "constant": true
    },
    {
      "inputs": [],
      "name": "test5",
      "outputs": [
        {
          "internalType": "uint256",
          "name": "",
          "type": "uint256"
        }
      ],
      "stateMutability": "pure",
      "type": "function",
      "constant": true
    },
    {
      "inputs": [],
      "name": "testNum",
      "outputs": [
        {
          "internalType": "uint256",
          "name": "",
          "type": "uint256"
        }
      ],
      "stateMutability": "view",
      "type": "function",
      "constant": true
    },
    {
      "stateMutability": "payable",
      "type": "receive",
      "payable": true
    },
    {
      "inputs": [],
      "name": "emitLog",
      "outputs": [
        {
          "internalType": "bytes32",
          "name": "",
          "type": "bytes32"
        }
      ],
      "stateMutability": "pure",
      "type": "function",
      "constant": true
    },
    {
      "inputs": [],
      "name": "addFunds",
      "outputs": [],
      "stateMutability": "payable",
      "type": "function",
      "payable": true
    },
    {
      "inputs": [],
      "name": "test1",
      "outputs": [],
      "stateMutability": "nonpayable",
      "type": "function"
    },
    {
      "inputs": [],
      "name": "test2",
      "outputs": [],
      "stateMutability": "nonpayable",
      "type": "function"
    },
    {
      "inputs": [
        {
          "internalType": "uint256",
          "name": "withdrawAmount",
          "type": "uint256"
        }
      ],
      "name": "withdraw",
      "outputs": [],
      "stateMutability": "nonpayable",
      "type": "function"
    },
    {
      "inputs": [],
      "name": "getAllFunders",
      "outputs": [
        {
          "internalType": "address[]",
          "name": "",
          "type": "address[]"
        }
      ],
      "stateMutability": "view",
      "type": "function",
      "constant": true
    },
    {
      "inputs": [
        {
          "internalType": "uint8",
          "name": "index",
          "type": "uint8"
        }
      ],
      "name": "getFunderAtIndex",
      "outputs": [
        {
          "internalType": "address",
          "name": "",
          "type": "address"
        }
      ],
      "stateMutability": "view",
      "type": "function",
      "constant": true
    }
  ],
  "bytecode": "0x608060405234801561001057600080fd5b50336000806101000a81548173ffffffffffffffffffffffffffffffffffffffff021916908373ffffffffffffffffffffffffffffffffffffffff1602179055506103e86001819055506109b5806100696000396000f3fe6080604052600436106100a05760003560e01c80636fbbb55d116100645780636fbbb55d1461016b5780638da5cb5b14610196578063a26759cb146101c1578063ae28f1ed146101cb578063af7f2c9b146101f6578063f42c13bf14610221576100a7565b80630a93cf33146100ac5780631ad7be82146100e95780632e1a7d4d1461011457806366e41cb71461013d5780636b59084d14610154576100a7565b366100a757005b600080fd5b3480156100b857600080fd5b506100d360048036038101906100ce919061065c565b61024c565b6040516100e0919061075a565b60405180910390f35b3480156100f557600080fd5b506100fe61028c565b60405161010b91906107d2565b60405180910390f35b34801561012057600080fd5b5061013b60048036038101906101369190610633565b61029e565b005b34801561014957600080fd5b50610152610335565b005b34801561016057600080fd5b50610169610337565b005b34801561017757600080fd5b50610180610339565b60405161018d9190610775565b60405180910390f35b3480156101a257600080fd5b506101ab61047f565b6040516101b8919061075a565b60405180910390f35b6101c96104a3565b005b3480156101d757600080fd5b506101e06105cc565b6040516101ed91906107d2565b60405180910390f35b34801561020257600080fd5b5061020b6105d2565b60405161021891906107d2565b60405180910390f35b34801561022d57600080fd5b506102366105d8565b6040516102439190610797565b60405180910390f35b6000600460008360ff16815260200190815260200160002060009054906101000a900473ffffffffffffffffffffffffffffffffffffffff169050919050565b6000610296610600565b50600a905090565b8067016345785d8a00008111156102ea576040517f08c379a00000000000000000000000000000000000000000000000000000000081526004016102e1906107b2565b60405180910390fd5b3373ffffffffffffffffffffffffffffffffffffffff166108fc839081150290604051600060405180830381858888f19350505050158015610330573d6000803e3d6000fd5b505050565b565b565b6060600060025467ffffffffffffffff81111561037f577f4e487b7100000000000000000000000000000000000000000000000000000000600052604160045260246000fd5b6040519080825280602002602001820160405280156103ad5781602001602082028036833780820191505090505b50905060005b600254811015610477576004600082815260200190815260200160002060009054906101000a900473ffffffffffffffffffffffffffffffffffffffff1682828151811061042a577f4e487b7100000000000000000000000000000000000000000000000000000000600052603260045260246000fd5b602002602001019073ffffffffffffffffffffffffffffffffffffffff16908173ffffffffffffffffffffffffffffffffffffffff1681525050808061046f9061088a565b9150506103b3565b508091505090565b60008054906101000a900473ffffffffffffffffffffffffffffffffffffffff1681565b60003390506104b0610600565b50600360008273ffffffffffffffffffffffffffffffffffffffff1673ffffffffffffffffffffffffffffffffffffffff16815260200190815260200160002060009054906101000a900460ff166105c9576000600260008154809291906105179061088a565b9190505590506001600360008473ffffffffffffffffffffffffffffffffffffffff1673ffffffffffffffffffffffffffffffffffffffff16815260200190815260200160002060006101000a81548160ff021916908315150217905550816004600083815260200190815260200160002060006101000a81548173ffffffffffffffffffffffffffffffffffffffff021916908373ffffffffffffffffffffffffffffffffffffffff160217905550505b50565b60015481565b60025481565b60007f48656c6c6f20576f726c64000000000000000000000000000000000000000000905090565b60006064905090565b60008135905061061881610951565b92915050565b60008135905061062d81610968565b92915050565b60006020828403121561064557600080fd5b600061065384828501610609565b91505092915050565b60006020828403121561066e57600080fd5b600061067c8482850161061e565b91505092915050565b6000610691838361069d565b60208301905092915050565b6106a681610837565b82525050565b6106b581610837565b82525050565b60006106c6826107fd565b6106d08185610815565b93506106db836107ed565b8060005b8381101561070c5781516106f38882610685565b97506106fe83610808565b9250506001810190506106df565b5085935050505092915050565b61072281610849565b82525050565b6000610735602383610826565b915061074082610902565b604082019050919050565b61075481610873565b82525050565b600060208201905061076f60008301846106ac565b92915050565b6000602082019050818103600083015261078f81846106bb565b905092915050565b60006020820190506107ac6000830184610719565b92915050565b600060208201905081810360008301526107cb81610728565b9050919050565b60006020820190506107e7600083018461074b565b92915050565b6000819050602082019050919050565b600081519050919050565b6000602082019050919050565b600082825260208201905092915050565b600082825260208201905092915050565b600061084282610853565b9050919050565b6000819050919050565b600073ffffffffffffffffffffffffffffffffffffffff82169050919050565b6000819050919050565b600060ff82169050919050565b600061089582610873565b91507fffffffffffffffffffffffffffffffffffffffffffffffffffffffffffffffff8214156108c8576108c76108d3565b5b600182019050919050565b7f4e487b7100000000000000000000000000000000000000000000000000000000600052601160045260246000fd5b7f43616e6e6f74207769746864726177206d6f7265207468616e20302e3120657460008201527f6865720000000000000000000000000000000000000000000000000000000000602082015250565b61095a81610873565b811461096557600080fd5b50565b6109718161087d565b811461097c57600080fd5b5056fea264697066735822122099eed53840f0918bb3680a85b696979438cf8176d8d9a27eaf4a361bc400aab864736f6c63430008040033",
  "immutableReferences": {},
  "source": "// SPDX-License-Identifier: MIT\r\npragma solidity >=0.4.22 <0.9.0;\r\n\r\nimport \"./Owned.sol\";\r\nimport \"./Logger.sol\";\r\nimport \"./IFaucet.sol\";\r\n\r\ncontract Faucet is Owned, Logger, IFaucet {\r\n    uint256 public numOfFunders;\r\n\r\n    mapping(address => bool) private funders;\r\n    mapping(uint256 => address) private lutFunders;\r\n\r\n    modifier limitWithdraw(uint256 withdrawAmount) {\r\n        require(\r\n            withdrawAmount <= 100000000000000000,\r\n            \"Cannot withdraw more than 0.1 ether\"\r\n        );\r\n        _;\r\n    }\r\n\r\n    //private -> can be accesible only within the smart contract\r\n    // internal -> can be accesible within smart contract and also derived smart contract\r\n    receive() external payable {}\r\n\r\n    //logger lay tai logger\r\n    function emitLog() public pure override returns (bytes32) {\r\n        return \"Hello World\";\r\n    }\r\n\r\n    // function transferOwnership(address newOwner) external onlyOwner {\r\n    //     owner = newOwner;\r\n    // }\r\n\r\n    function addFunds() external payable override {\r\n        // uint index = numOfFunders++;\r\n        address funder = msg.sender;\r\n        // truyen function accessors\r\n        test3();\r\n\r\n        if (!funders[funder]) {\r\n            uint256 index = numOfFunders++;\r\n            funders[funder] = true;\r\n            lutFunders[index] = funder;\r\n        }\r\n    }\r\n\r\n    function test1() external {\r\n        //some managing stuff that only admin should have access\r\n    }\r\n\r\n    function test2() external {\r\n        //some managing stuff that only admin should have access\r\n    }\r\n\r\n    function withdraw(uint256 withdrawAmount)\r\n        external\r\n        override\r\n        limitWithdraw(withdrawAmount)\r\n    {\r\n        // require(\r\n        //     withdrawAmount <= 100000000000000000,\r\n        //     \"Cannot withdraw more than 0.1 ether\"\r\n        // );\r\n        // if(withdrawAmount < 1000000000000000000) {\r\n\r\n        payable(msg.sender).transfer(withdrawAmount);\r\n        // }\r\n    }\r\n\r\n    function getAllFunders() external view returns (address[] memory) {\r\n        address[] memory _funders = new address[](numOfFunders);\r\n\r\n        for (uint256 i = 0; i < numOfFunders; i++) {\r\n            _funders[i] = lutFunders[i];\r\n        }\r\n        return _funders;\r\n    }\r\n\r\n    function getFunderAtIndex(uint8 index) external view returns (address) {\r\n        return lutFunders[index];\r\n    }\r\n}\r\n// function getAllFunders() public view returns (address[] memory) {\r\n//     return funders;\r\n// }\r\n\r\n// const instance = await Faucet.deployed()\r\n// instance.addFunds({from: accounts[0],value: \"2000000000000000000\"})\r\n// instance.addFunds({from: accounts[1],value: \"2000000000000000000\"})\r\n// instance.withdraw(\"100000000000000000\",{from: accounts[1]})\r\n// instance.getAllFunders()\r\n",
  "sourcePath": "D:\\blockchain\\faucet\\contracts\\FaucelContract.sol",
  "compiler": {
    "name": "solc",
    "version": "0.8.4+commit.c7e474f2.Emscripten.clang"
  },
  "schemaVersion": "3.4.3",
  "updatedAt": "2022-05-09T03:25:11.743Z",
  "networkType": "ethereum",
  "devdoc": {
    "kind": "dev",
    "methods": {},
    "version": 1
  },
  "userdoc": {
    "kind": "user",
    "methods": {},
    "version": 1
  }
}